:020000040800F2
:1000000000000220B52B00081B0500081D05000894
:100010001F05000821050008230500080000000056
:10002000000000000000000000000000250500089E
:100030002705000800000000290500082B0500081E
:10004000052C0008052C0008052C0008052C0008CC
:10005000052C0008052C0008052C0008052C0008BC
:10006000052C0008052C0008052C0008052C0008AC
:10007000052C0008052C0008052C0008052C00089C
:10008000052C0008052C0008052C0008052C00088C
:10009000052C0008052C0008052C0008052C00087C
:1000A000052C0008052C0008052C0008052C00086C
:1000B000052C0008052C0008052C0008052C00085C
:1000C000052C0008052C0008052C0008052C00084C
:1000D000052C0008052C0008052C0008052C00083C
:1000E000052C0008052C0008052C0008052C00082C
:1000F000052C0008052C0008052C0008052C00081C
:10010000052C000835050008052C0008052C000802
:10011000052C0008052C0008052C0008052C0008FB
:1001200045050008052C0008052C000855050008A9
:10013000052C0008052C0008052C0008052C0008DB
:10014000052C0008052C0008052C0008052C0008CB
:10015000052C0008052C0008052C0008052C0008BB
:10016000052C0008052C0008052C0008052C0008AB
:10017000052C0008052C0008052C000800000000D4
:08018000052C0008052C000805
:1001880053B94AB9002908BF00281CBF4FF0FF31F6
:100198004FF0FF3000F00CB8ADF1080C6DE904CE5B
:1001A80002F05AFDDDF804E0DDE9022304B07047EF
:1001B800704700BF10B5054C227832B9044B13B113
:1001C8000448AFF300800123237010BD1400002001
:1001D80000000000142F000808B5034B1BB10349A9
:1001E8000348AFF3008008BD00000000180000209D
:1001F800142F0008F0B58BB00024059406940794DA
:100208000894099401942A4B1A6B42F004021A6369
:100218001A6B02F004020192019A02941A6B42F0DE
:1002280080021A631A6B02F080020292029A039407
:100238001A6B42F001021A631A6B02F00102039270
:10024800039A04941A6B42F008021A631B6B03F0BA
:1002580008030493049B174D22464FF4F0412846A7
:1002680002F0D8F9144E22464FF47061304602F07D
:10027800D1F94FF4F04305930127069707940894A2
:1002880005A9284602F0E2F84FF470630593069733
:100298000794089405A9304602F0D8F87823059306
:1002A8000694079405A9284602F0D0F80BB0F0BDD3
:1002B80000380240000C02400000024010B582B035
:1002C800002401940D4B1A6B42F480021A631B6BD5
:1002D80003F480030193019B22462146382002F053
:1002E80083FB382002F0B4FB224621463B2002F073
:1002F8007BFB3B2002F0ACFB02B010BD0038024093
:1003080010B5094C094B236000236360A360E360C8
:1003180023616361A361204601F090F94FF4006105
:10032800204601F0A4F910BD9C000020002C0140DB
:1003380008B50B480B4B03604FF4827343600023EE
:100348008360C360036143614FF400728261C361DB
:100358000362436283620A23C36201F082FB08BD21
:10036800200100200030014010B594B03022002157
:1003780008A802F069FC00240394049405940694E8
:1003880007940194184B1A6C42F080521A641B6C43
:1003980003F080530193019B0294144B1A6842F4B2
:1003A80080421A601B6803F480430293029B022375
:1003B800089301220B9210220C920E930F94109224
:1003C800C022119212930423139308A801F072FD1E
:1003D8000F2303930494059406940794214603A8D5
:1003E80001F086FF14B010BD0038024000700040D4
:1003F80030B583B0054688238DF8043048238DF83E
:1004080005300A4C00220146204602F003F94FF459
:100418007A73022201A9064801F063FB01222946EA
:10042800204602F0F7F803B030BD00BF00000240DC
:100438002001002010B582B0114C00224FF4006159
:10044800204602F0E7F800224FF48041204602F0EF
:10045800E1F84FF47A73009304230A4A0A490B48D7
:1004680001F00BFC01224FF48041204602F0D2F843
:1004780001224FF40061204602F0CCF802B010BD12
:1004880000000240980000203400002020010020D5
:1004980010B582B0074C4FF4FA6300930A23226820
:1004A80005490978054800F027FE236801332360D1
:1004B80002B010BD30000020000000209C00002089
:1004C80008B502F00DFBFFF74FFFFFF793FEFFF7AC
:1004D800F5FEFFF715FFFFF72BFF0C4C01224FF439
:1004E8000061204602F096F801224FF48041204630
:1004F80002F090F84FF40060FFF77AFF4FF40060C5
:10050800FFF798FFFFF7C4FFF8E700BF00000240BD
:1005180070477047FEE7FEE7FEE7FEE77047704763
:10052800704708B502F0F6FA08BD000008B50248A1
:1005380001F04AF908BD00BF9C00002008B5024838
:1005480002F052F908BD00BF7801002008B5024842
:1005580002F04AF908BD00BF3800002082B000212F
:1005680000910B4B5A6C42F480425A645A6C02F464
:1005780080420092009A01911A6C42F080521A64EB
:100588001B6C03F080530193019B02B0704700BFBE
:10059800003802402DE9F04389B000230393049307
:1005A80005930693079302683A4B9A4202D009B022
:1005B800BDE8F08304460025009503F586335A6CA0
:1005C80042F400625A645A6C02F400620092009A83
:1005D80001951A6B42F004021A631A6B02F00402C6
:1005E8000192019A02951A6B42F008021A631B6B7A
:1005F80003F008030293029B4FF4F85303934FF060
:100608000209CDF81090032606964FF00C08CDF895
:100618001C800DEB0801204801F018FF0427039700
:10062800CDF8109005950696CDF81C800DEB0801C5
:100638001A4801F00BFF1A481A4B03604FF0006389
:1006480043608560C5604FF4806303614FF4805355
:1006580043614FF4804383612023C361056247628D
:1006680086624FF40003C3624FF40013036302F081
:1006780041F858B90A4BE3639C63002211463120C4
:1006880002F0B2F9312002F0E3F990E7FFF740FFFA
:10069800F0E700BF002C014000080240000C0240B7
:1006A800380000205864024030B589B00023039315
:1006B80004930593069307930268214B9A4201D04D
:1006C80009B030BD04460025019503F584335A6C02
:1006D80042F480525A645A6C02F480520192019A90
:1006E80002951A6B42F001021A631B6B03F00103B7
:1006F8000293029BE02303930223049303230693AC
:100708000523079303A90F4801F0A0FE0E480F4BDD
:1007180003604FF0C06343608560C5604FF4806339
:10072800036145618561C5610562456201F0E2FFCB
:1007380018B9054BE3649C63C2E7FFF7E9FEF8E7E5
:10074800003001400000024078010020106402409F
:100758000C4B1B680C4AA2FB03235A0A41F288334C
:1007680003FB02F35A1E4BB1416B134611F0800F85
:10077800F8D040F2FF538363002070474FF00040E9
:10078800704700BF10000020D34D6210144B1B6847
:10079800144AA2FB03235A0A41F2883303FB02F3EB
:1007A8005A1ECBB1416B134611F0450FF8D0436B7D
:1007B80013F0040F08D1436B13F0010F08D140F276
:1007C800FF538363002070470423836318467047F0
:1007D80001238363184670474FF00040704700BFFD
:1007E80010000020D34D6210104B1B68104AA2FB6A
:1007F80003235A0A41F2883303FB02F35A1E8BB1D2
:10080800416B134611F0450FF8D0436B13F0040FFA
:1008180004D140F2FF5383630020704704238363AD
:10082800184670474FF00040704700BF1000002086
:10083800D34D6210124B1B68124AA2FB03235A0ABB
:1008480041F2883303FB02F35A1EA3B1416B1346EE
:1008580011F0450FF8D0436B13F0040F07D1436B29
:1008680013F0400F0AD040238363002070474023D1
:100878008363042070474FF00040704700207047A2
:1008880010000020D34D621084B010B402AC84E88C
:100898000E000B46039A1343049A1343059A134315
:1008A800069A1343079A1343426822F4FD4222F042
:1008B8007F021343436000205DF8044B04B0704787
:1008C800D0F8800070470B68C0F88030002070476F
:1008D8000323036000207047006800F0030070479E
:1008E8000B6883604B688A681343CA6813430A69B4
:1008F8001343C26822F47F6222F00F021343C360DD
:10090800002070470069C0B2704782B0002301938D
:10091800143001440191019B186802B0704700002F
:1009280038B5514B1B68514CA4FB03435B0A02FBCF
:1009380003F2531E002A5ED0446B1A4614F0450F8A
:10094800F7D0436B13F0040F07D1436B13F0010F7B
:1009580007D00123836318464FE0042383631846B6
:100968004BE00D460446FFF7CDFFA84201D0012019
:1009780043E040F2FF53A36300212046FFF7C5FF81
:100988003B4B0340D3B300283ADB10F0804F3AD1F9
:1009980010F0005F39D110F0805F38D110F0006F8F
:1009A80038D110F0806F38D110F0807F38D110F432
:1009B800000F38D110F4800F38D110F4001F38D14F
:1009C80010F4801F38D110F4802F38D110F4003F74
:1009D80038D110F4803F38D110F4004F38D110F4DA
:1009E800804F38D110F4005F38D110F0080F38D09C
:1009F8004FF4000001E04FF0004038BD0020FCE754
:100A08004FF00070F9E74020F7E78020F5E74FF452
:100A18008070F2E74FF40070EFE74FF48060ECE786
:100A28004FF40060E9E74FF48050E6E74FF40050D8
:100A3800E3E74FF48040E0E74FF40040DDE74FF490
:100A48000030DAE74FF48020D7E74FF40020D4E7EE
:100A58004FF48010D1E74FF40010CEE74FF4800038
:100A6800CBE74FF48030C8E710000020D34D621068
:100A780008E0FFFD70B5254B1B68254CA4FB03431C
:100A88005C0A41F2883303FB04F35C1EA3B3456B95
:100A9800234615F0450FF8D0436B13F0040F07D128
:100AA800436B13F0010F07D001238363184625E039
:100AB80004238363184621E016460D460446FFF7D3
:100AC80021FFA84201D0012018E040F2FF53A363A0
:100AD80000212046FFF719FF10F4604F08D010F4EA
:100AE800804F0CD110F4004F0CD04FF4805005E02B
:100AF800000C3080002001E04FF0004070BD4FF442
:100B08000050FBE74FF48030F8E700BF10000020EA
:100B1800D34D62100B6843624B6883628B68CA6866
:100B280013430A6913434A691343C26A22F0F7025E
:100B38001343C3620020704730B587B00546019162
:100B48001024029440230393002304934FF48063FA
:100B5800059301A9FFF7C4FE41F2883221462846D1
:100B6800FFF7DEFE07B030BD30B587B0054601910E
:100B78001824029440230393002304934FF48063C2
:100B8800059301A9FFF7ACFE41F2883221462846B9
:100B9800FFF7C6FE07B030BD30B587B005460191F6
:100BA8001924029440230393002304934FF4806391
:100BB800059301A9FFF794FE41F2883221462846A1
:100BC800FFF7AEFE07B030BD30B587B0054600234D
:100BD80001930C2402944022039204934FF48063FF
:100BE800059301A9FFF77CFE034A21462846FFF733
:100BF80097FE07B030BD00BF00E1F50530B587B0FE
:100C0800054601920724029440230393002304938A
:100C18004FF48063059301A9FFF762FE41F2883221
:100C280021462846FFF77CFE07B030BD10B586B0D8
:100C38000446002301930293039304934FF48063C3
:100C4800059301A9FFF74CFE2046FFF781FD06B08A
:100C580010BD10B586B004464FF4D5730193082330
:100C6800029340230393002304934FF48063059376
:100C780001A9FFF735FE2046FFF7DCFD06B010BDE1
:100C880030B587B005460191372402944023039379
:100C9800002304934FF48063059301A9FFF720FE16
:100CA80041F2883221462846FFF73AFE07B030BDA8
:100CB80010B586B0044641F0004141F4801101911D
:100CC8002923029340230393002304934FF4806362
:100CD800059301A9FFF704FE2046FFF785FD06B03E
:100CE80010BD30B587B00546019106240294402313
:100CF8000393002304934FF48063059301A9FFF73E
:100D0800EFFD41F2883221462846FFF709FE07B079
:100D180030BD30B587B005460023019333240294D3
:100D28004022039204934FF48063059301A9FFF7CF
:100D3800D7FD41F2883221462846FFF7F1FD07B07A
:100D480030BD10B586B004460023019302220292FA
:100D5800C022039204934FF48063059301A9FFF71F
:100D6800BFFD2046FFF712FD06B010BD10B586B0D6
:100D78000446019109230293C0230393002304939B
:100D88004FF48063059301A9FFF7AAFD2046FFF7FA
:100D9800FDFC06B010BD70B586B005460E460023B2
:100DA8000193032402944022039204934FF4806336
:100DB800059301A9FFF794FD324621462846FFF71F
:100DC80059FE06B070BD30B587B0054601910D24B7
:100DD800029440230393002304934FF48063059304
:100DE80001A9FFF77DFD41F2883221462846FFF729
:100DF80097FD07B030BD70B582B00446002301935B
:100E08000068FFF713FF054610B1284602B070BD11
:100E18002068FFF71EFF064610B30023A3642E4682
:100E2800DEB9019B5A1C01924FF6FF72934244D0DF
:100E380000212068FFF724FF002841D10021206805
:100E4800FFF736FF064600283DD100212068FFF74E
:100E58005CFD0028E4DA0126E2E700236364D4E7B6
:100E68000123A3640546EDB9019B5A1C01924FF674
:100E7800FF7293422AD000212068FFF701FF054640
:100E88000028C2D14FF080412068FFF711FF0546C6
:100E98000028BAD100212068FFF737FD0028E2DAE0
:100EA8000125E0E710F0804F03D001236364354645
:100EB800ABE7002363643546A7E74FF08075A4E7E6
:100EC8004FF08055A1E74FF080559EE74FF08075B1
:100ED8009BE770B50546866A002405E02868FFF799
:100EE800EFFC46F824000134072CF7D9AB6A20330D
:100EF800AB62002070BD70B50546066A002405E0A7
:100F080006EB84012868FFF7DEFC0134072CF7D9CB
:100F18002B6A20332B62002070BD2DE9F04188B088
:100F280004460F4601F002FE064600230093019393
:100F380008212068FFF700FE054618B1284608B0CA
:100F4800BDE8F081216D09042068FFF799FE054688
:100F58000028F3D14FF0FF33029308230393302383
:100F6800049302230593002306930123079302A900
:100F78002068FFF7CFFD2068FFF7CBFE0546002865
:100F8800DCD180460BE0FFF79BFC4DF8280008F108
:100F9800010801F0CBFD801BB0F1FF3F3DD0206878
:100FA800426B40F22A431A4204D1436B13F4001FE8
:100FB800EFD0E8E7436B13F0080F25D1436B13F02C
:100FC800020F24D1436B13F0200F23D140F2FF53BB
:100FD8008363009A130203F47F0343EA0263110A4E
:100FE80001F47F410B4343EA12637B60019A1302C9
:100FF80003F47F0343EA0263110A01F47F410B43C0
:1010080043EA12633B6099E70825856396E7022562
:10101800856393E72025856390E74FF000458DE7CA
:1010280010B582B004460021009101910068FFF7D5
:101038006CFC10F0007F16D169462046FFF76DFF63
:10104800034690B9019B13F4802F11D0216D090438
:101058002068FFF715FE034638B902212068FFF71C
:1010680040FE034601E04FF40063184602B010BD8D
:101078004FF08063F9E710B582B004460021009173
:1010880001910068FFF741FC10F0007F16D1694616
:101098002046FFF742FF034690B9019B13F4803FB7
:1010A80011D0216D09042068FFF7EAFD034638B91D
:1010B80000212068FFF715FE034601E04FF40063A6
:1010C800184602B010BD4FF08063F9E770B581B1E2
:1010D8000D460446016D09040068FFF774FE0646D4
:1010E80008B1304670BD00212068FFF70EFC28606B
:1010F800F7E74FF00066F4E72DE9F04786B00446BD
:101108000E46154699460E9F01F010FD002E37D069
:10111800804694F83430DBB2012B40F0DA800023AB
:10112800A36305EB0903E26D93422FD8032384F8E8
:10113800343023680022DA62636C012B00D06D0220
:101148004FF400712068FFF7F7FC034620BBB9F1A4
:10115800010F2CD92023236329462068FFF71CFDA3
:101168008246BAF1000F2AD0236840F2FF529A63F0
:10117800A36B43EA0A03A363012084F83400ADE0BB
:10118800A36B43F00063A3630120A7E0A36B43F0C4
:101198000073A3630120A1E0226840F2FF5191632C
:1011A800A06B1843A063012084F8340096E0102354
:1011B800236329462068FFF7D7FC8246D1E74FF022
:1011C800FF3300934FEA49230193902302930023AE
:1011D800039304930123059369462068FFF79AFC5B
:1011E8000FE006EB85012068FFF76DFB0135072D41
:1011F800F7D920368FB101F099FCA0EB0800B8426E
:101208000BD22068426B40F21A331A4212D1436B58
:1012180013F4804FEED05546E9E7236840F2FF52B9
:101228009A63A36B43EA0A03A363012384F8343067
:10123800032053E0436B13F4807F05D0B9F1010F0D
:1012480002D9636C032B17D123685A6B12F0080F6D
:1012580021D15A6B12F0020F28D15A6B12F0100FDD
:101268002FD040F2FF529A63A36B43F01003A3639D
:10127800012084F8340031E0FFF7A6FC0028E3D011
:10128800236840F2FF519963A36B0343A3630120D2
:1012980084F8340022E040F2FF529A63A36B43F0D3
:1012A8000803A363012084F8340017E040F2FF52DA
:1012B8009A63A36B43F00203A363012084F834000C
:1012C8000CE040F2FF529A63012384F83430002086
:1012D80004E0A36B43F00053A363012006B0BDE80C
:1012E800F087704770477047704730B4436E9A0F65
:1012F8000A70C3F383624A70C3F301638B7090F87A
:101308006630CB7090F865300B7190F864304B7193
:1013180090F86B301B01CB80B0F86A30CC88C3F3EF
:1013280003122243CA8003F00F030B7290F869304E
:10133800DA094A72C3F380128A72C3F34012CA727E
:10134800C3F300120A7300224A73426C002A40F069
:1013580092809B0203F440630B61836E0A699B00D1
:1013680003F47F7313430B61C36E0A6942EA9372F5
:101378000A61C3F3C2620A75C3F302634B75C26E96
:10138800C2F30743C2F342548C75C2F38242CA7552
:101398005B0003F006030B76C26EC2F307230C7ED4
:1013A800C2F3C03222430A760A69013242650C7ED2
:1013B800023402FA04F444650A7AD5B20122AA403A
:1013C8008265520A02FB04F2C2654FF4007202669B
:1013D800C3F380124A765B0003F07E038B76C36EFC
:1013E8008A7EC3F3C01422438A7603F07F03CB7648
:1013F800036F1A0EDC0F0C77C3F341744C77C3F3F9
:1014080082638B77930003F00C03CB77036FCA7F5B
:10141800C3F381542243CA77C3F3405281F8202092
:10142800002281F82120C3F3004381F82230036FA2
:10143800C3F3C03481F82340C3F3803481F82440D7
:10144800C3F3403481F82540C3F3003481F82640C3
:10145800C3F3812481F82740C3F3012381F828309E
:10146800036FC3F3460381F82930012381F82A303A
:10147800104630BC7047012A1BD1836E1B0403F44D
:101488007C130B6190F86F200B6943EA02230B6110
:101498000A6990F86E3013430B6190F86D300A6951
:1014A800013292024265C2654FF40072826502669B
:1014B8008EE7036840F2FF529A63836B43F08053D0
:1014C8008363012280F834201046D2E770B590B0CB
:1014D80004460123ADF812300068FFF7FDF9002833
:1014E8006AD0636C032B43D1636C032B5BD1636CB1
:1014F800032B1DD0BDF81210216509042068FFF7E1
:1015080035FC0546002859D100212068FFF7FDF970
:10151800606604212068FFF7F8F9A06608212068B2
:10152800FFF7F3F9E0660C212068FFF7EEF9206772
:1015380004212068FFF7E9F9000DE06405A92046B9
:10154800FFF7D3FE226D120400232068FFF756FB35
:10155800054698BB234653F8106B93E807008DE8BF
:101568000700043494E80E003046FFF78DF925E0B3
:101578002068FFF7E6FB054600BB00212068FFF75F
:10158800C4F9606704212068FFF7BFF9A067082144
:101598002068FFF7BAF9E0670C212068FFF7B5F972
:1015A800C4F88000A0E70DF112012068FFF7F3FBF3
:1015B800054600289BD001E04FF08065284610B012
:1015C80070BD000070B58AB00546002404940594E7
:1015D800069407940894762309930AAB13E9070045
:1015E8008DE8070004AB0ECB2868FFF74DF9124EC3
:1015F80034602868FFF76CF901233360022001F09A
:101608009BFA2846FFF7F7FB40B10246012085F810
:101618003400AB6B1343AB630AB070BD2846FFF7C9
:1016280055FF024608B90020F6E7012085F8340086
:10163800AB6B1343AB63EFE7A0802542A8B110B5AD
:10164800044690F8343063B1032384F834302046DC
:10165800FFF7B8FF0020A0632063012384F834302B
:1016680010BD0377FEF796FFEEE70120704730B50F
:101678008BB004460D46032380F83430436C032BAB
:101688001CD0B1F5805F08D0B1F5006F0AD079B1F0
:10169800836B43F00063836314E0836B43F08053F0
:1016A80083630FE0FFF7BCFCA36B1843A06309E05A
:1016B800FFF7E1FCA36B1843A06303E0836B43F0DF
:1016C80080538363A36B43B1236840F2FF529A634C
:1016D800012084F834000BB030BD63680493A3681C
:1016E8000593E3680693079563690893A3690993CB
:1016F8000AAB13E907008DE8070004AB0ECB20689E
:10170800FFF7C2F8012384F834300020E3E710B56E
:1017180082B004460023019301A9FFF7D7FC18B152
:101728000346A06B1843A0630198C0F3432002B09E
:1017380010BD10B5846B236C0BB100232364E36BDD
:1017480003B110BD2046FFF7E2FF0023A363012386
:1017580084F834300538C0B29842F2D82068FFF7D0
:1017680033FAA36B1843A063A36B1BB12046FFF7A2
:10177800BBFDE6E72046FFF7B6FDE2E710B5846B50
:10178800E36B0BB10023E363236C03B110BD204668
:10179800FFF7BDFF0023A363012384F83430053825
:1017A800C0B29842F2D82068FFF70EFAA36B18432C
:1017B800A063A36B1BB12046FFF796FDE6E7204622
:1017C800FFF791FDE2E7000010B5044603685A6B85
:1017D80012F4807F61D04FF480729A630268D36BF1
:1017E80023F44E7323F00203D363036B13F0080F43
:1017F8002AD0036B13F0020F03D1036B13F0200FF1
:1018080004D02068FFF7E0F9034690B9236840F256
:10181800FF529A63012384F83430236B13F0010FCD
:1018280003D1236B13F0020F0AD02046FFF75AFDAD
:1018380010BDA26B1343A3632046FFF754FDE5E7F1
:101848002046FFF74EFDF3E7036B13F0800FEFD050
:10185800036B13F0200F13D1236B13F0010FE7D1A3
:10186800236B13F0020FE3D12268D36A23F0080335
:10187800D362012384F834302046FFF732FDD7E7DE
:101888000068FFF7A1F903460028E5D0A26B1343CF
:10189800A3632046FFF727FDDEE75A6B12F4804F5B
:1018A8004CD15A6B12F4004F4ED1596B40F23A2288
:1018B8001142BDD05A6B12F0020F03D0826B42F076
:1018C800020282635A6B12F0080F03D0A26B42F037
:1018D8000802A2635A6B12F0200F03D0A26B42F0E9
:1018E8002002A2635A6B12F0100F03D0A26B42F0D1
:1018F8001002A2635A6B12F4007F03D0A26B42F06D
:101908000802A26340F2FF729A632268D36B23F441
:101918004E7323F00203D363236B13F0800F30D090
:10192800236CBBB11D4A1A65206C00F049FF0028E2
:101938003FF47EAF206CFFF7FCFE79E74FF480425E
:101948009A63FFF7D8FA73E74FF400429A63FFF7F8
:10195800C0FA6DE7E36B5BB1114A1A65E06B00F002
:101968002FFF00283FF464AFE06BFFF707FF5FE746
:101978000023A363012384F834302046FFF7B4FC26
:1019880056E7236B13F0080F3FF452AF012384F896
:1019980034302046FFF7A7FC4AE700BF3B17000892
:1019A80085170008F8B505460F4616461C463BE065
:1019B8002CB101F0BBF8069BC01AA04234D32A68A8
:1019C800536823F0E00353606B68B3F5827F0BD054
:1019D800AB6AB3F5005F14D0012385F851300023BA
:1019E80085F85030032027E0AB68B3F5004F02D0EC
:1019F800B3F5806FECD12A68136823F040031360B5
:101A0800E6E72A68136823F400531B041B0C1360D1
:101A18002A68136843F400531360DDE70123B342D7
:101A280009D0B4F1FF3FC3D12B689B6837EA0303A1
:101A3800F4D00023F3E70020F8BD10B582B00446C7
:101A480000920B4600228021FFF7ACFF034610B935
:101A5800184602B010BD636D43F02003636503238D
:101A6800F6E700283BD010B504460023836290F8BF
:101A78005130002B2ED0022384F85130226813688D
:101A880023F0400313606368A2681343E2681343BA
:101A98002269134362691343A26902F40072134373
:101AA800E2691343226A1343A16A22680B43136055
:101AB800638B03F00403616A22680B435360226856
:101AC800D36923F40063D36100206065012384F89F
:101AD800513010BD80F85030FEF7E6FDCBE701200D
:101AE80070472DE9F04184B01D4690F85030012B25
:101AF80000F0C18004460E469046012380F850301D
:101B080001F014F8074694F85130DBB2012B40F08D
:101B1800A380002E00F0AB80B8F1000F00F0A98080
:101B2800032384F85130002363652663A4F83480C6
:101B3800A4F83680A363A387E38763642364A36858
:101B4800B3F5004F1BD023681A6812F0400F03D179
:101B58001A6842F040021A60E368B3F5006F14D0C7
:101B680063681BB1E38E9BB2012B3CD1236816F846
:101B7800012B1A73E38E013B9BB2E38633E02268A4
:101B8800136843F480431360DDE763681BB1E38E99
:101B98009BB2012B0CD1236836F8022BDA60E38E56
:101BA800013B9BB2E38603E0BDB1B5F1FF3F0FD126
:101BB800E38E9BB273B323689A6812F0020FF3D0D6
:101BC80036F8022BDA60E38E013B9BB2E386EFE73F
:101BD80000F0ACFFC01BA842EAD303233DE0BDB12F
:101BE800B5F1FF3F0FD1E38E9BB29BB123689A6892
:101BF80012F0020FF3D016F8012B1A73E38E013B93
:101C08009BB2E386EFE700F091FFC01BA842EAD33E
:101C1800032322E000972B46012202212046FFF7EA
:101C2800C1FE08B1032318E03A4629462046FFF7CB
:101C380004FF034660B9A26832B903922268D168EA
:101C4800039192680392039A626D32B1012304E012
:101C580020236365012300E00223012284F8512038
:101C6800002284F85020184604B0BDE8F081012312
:101C7800F3E70123F1E70223F5E72DE9F04385B007
:101C880098460C9D90F85030012B00F010810446C6
:101C98000F461646012380F8503000F047FF814672
:101CA80094F85130DBB26268012B0AD0B2F5827F1A
:101CB80040F0E880A268002A40F0EF80042B40F052
:101CC800EE80002F00F0ED80002E00F0EC80B8F1DF
:101CD800000F00F0EA8094F85130DBB2012B2BD0D2
:101CE80000236365A663A4F83E80A4F83C802763BC
:101CF800A4F83680A4F834802364636423681A68DF
:101D080012F0400F03D11A6842F040021A60E368EB
:101D1800B3F5006F14D063681BB1E38E9BB2012B3F
:101D280007D1236817F8012B1A73E38E013B9BB286
:101D3800E3864FF0010861E0052384F85130CFE7CE
:101D480063681BB1E38E9BB2012B07D1236837F878
:101D5800022BDA60E38E013B9BB2E3864FF0010869
:101D680013E0E38F9BB26BB123689A6812F0010FFE
:101D780008D0DB6826F8023BE38F013B9BB2E38780
:101D88004FF00108B5F1FF3F1CD1E38E9BB21BB9A0
:101D9800E38F9BB2002B55D0B8F1000FE1D0E38E52
:101DA8009BB2002BDDD023689A6812F0020FD8D0BE
:101DB80037F8022BDA60E38E013B9BB2E3864FF0E3
:101DC8000008CEE700F0B2FEA0EB0900A842DCD381
:101DD800032358E0E38F9BB26BB123689A6812F033
:101DE800010F08D0DB6806F8013BE38F013B9BB28B
:101DF800E3874FF00108B5F1FF3F1BD1E38E9BB29B
:101E080013B9E38F9BB2EBB1B8F1000FE2D0E38EC8
:101E18009BB2002BDED023689A6812F0020FD9D04B
:101E280017F8012B1A73E38E013B9BB2E3864FF040
:101E38000008CFE700F07AFEA0EB0900A842DDD346
:101E4800032320E0CDF800902B46012202212046F2
:101E5800FFF7A8FD08B1032315E04A4629462046A6
:101E6800FFF7EBFD034648B9A26862B903922268FE
:101E7800D168039192680392039A04E02023636572
:101E8800012300E00223012284F85120002284F873
:101E98005020184605B0BDE8F0830223F3E702237B
:101EA800F1E70123EFE70123EDE70123EBE7022345
:101EB800EFE70000002800F0B98170B582B0044651
:101EC800036813F0010F3BD0A64B9B6803F00C038B
:101ED800042B2CD0A34B9B6803F00C03082B21D0B8
:101EE8006368B3F5803F4FD0B3F5A02F52D09D4B18
:101EF8001A6822F480321A601A6822F480221A6062
:101F08006368002B50D000F011FE0546954B1B6806
:101F180013F4003F14D100F009FE401B6428F5D9E2
:101F280003208AE18F4B5B6813F4800FD8D08D4B68
:101F38001B6813F4003F03D06368002B00F078811E
:101F4800236813F0020F54D0864B9B6813F00C0FD4
:101F58003ED0844B9B6803F00C03082B33D0E36816
:101F6800002B67D0804B01221A6000F0DFFD054688
:101F78007C4B1B6813F0020F53D100F0D7FD401BB8
:101F88000228F5D9032058E1764A136843F48033D0
:101F98001360B5E7734B1A6842F480221A601A6816
:101FA80042F480321A60ABE700F0C0FD05466D4B85
:101FB8001B6813F4003FC3D000F0B8FD401B642831
:101FC800F5D9032039E1674B5B6813F4800FC6D15C
:101FD800644B1B6813F0020F03D0E368012B40F039
:101FE8002981604A136823F0F803216943EAC10391
:101FF8001360236813F0080F40D0636963B35B4B29
:1020080001221A6000F092FD0546564B5B6F13F0F3
:10201800020F33D100F08AFD401B0228F5D90320B6
:102028000BE1504A136823F0F803216943EAC1031E
:102038001360DEE74C4B00221A6000F077FD05467E
:10204800484B1B6813F0020FD3D000F06FFD401B04
:102058000228F5D90320F0E0444B00221A6000F072
:1020680065FD05463F4B5B6F13F0020F06D000F08D
:102078005DFD401B0228F5D90320DEE0236813F03C
:10208800040F78D0374B1B6C13F0805F33D10023DB
:102098000193344B1A6C42F080521A641B6C03F0A3
:1020A80080530193019B0125314B1B6813F4807FFA
:1020B80023D0A368012B34D0052B38D0294B1A6FB5
:1020C80022F001021A671A6F22F004021A67A36845
:1020D800002B36D000F02AFD0646224B1B6F13F06A
:1020E800020F47D100F022FD801B41F2883398424D
:1020F800F3D90320A1E00025D6E71D4A136843F46D
:102108008073136000F012FD0646194B1B6813F428
:10211800807FCED100F00AFD801B0228F5D903206C
:102128008BE0104A136F43F001031367CFE70D4BA1
:102138001A6F42F004021A671A6F42F001021A6716
:10214800C5E700F0F3FC0646064B1B6F13F0020FC1
:1021580010D000F0EBFC801B41F288339842F3D991
:1021680003206AE00038024000004742800E4742E0
:1021780000700040E5B9A369002B5DD0314A926830
:1021880002F00C02082A5AD0022B17D02E4B00223C
:102198001A6000F0CBFC04462A4B1B6813F0007F42
:1021A80042D000F0C3FC001B0228F5D9032044E00C
:1021B800244A136C23F080531364DCE7224B00227B
:1021C8001A6000F0B3FC05461E4B1B6813F0007F35
:1021D80006D000F0ABFC401B0228F5D903202CE008
:1021E800E369226A1343626A43EA8213A26A5208C5
:1021F800013A43EA0243E26A43EA0263114A53603E
:10220800114B01221A6000F091FC04460D4B1B682B
:1022180013F0007F06D100F089FC001B0228F5D9D5
:1022280003200AE0002008E0002006E001207047B3
:10223800012002E0012000E0002002B070BD012072
:10224800FBE700BF0038024060004742254B9B680F
:1022580003F00C03042B40D0082B40D170B5214B60
:102268005A6802F03F025B6813F4800F12D01D4BCE
:102278005968C1F3881100231B48A1FB0001FDF731
:102288007FFF184B5B68C3F3014301335B00B0FB6E
:10229800F3F070BD134B5868C0F38810054600264C
:1022A80043011B1A66EB0604A10141EA93619801F8
:1022B800C01A61EB0401CB0043EA5073C40019460D
:1022C800601946EB01018B0243EA905384022046D1
:1022D80019463346FDF754FFD3E7034870470348D0
:1022E800704700BF0038024040787D010024F400A8
:1022F800002800F09A8070B50446504B1B6803F024
:102308000F038B4208D2CBB24C4A1370136803F008
:102318000F038B4240F08B80236813F0020F17D015
:1023280013F0040F04D0464A936843F4E0539360D3
:10233800236813F0080F04D0414A936843F46043BC
:1023480093603F4A936823F0F003A06803439360C7
:102358000D46236813F0010F32D06368012B21D09A
:102368009A1E012A25D9364A126812F0020F60D047
:1023780033498A6822F0030213438B6000F0D6FBCE
:1023880006462F4B9B6803F00C036268B3EB820F81
:1023980016D000F0CBFB801B41F288339842F0D96D
:1023A800032041E0264A126812F4003FE0D10120E0
:1023B8003AE0234A126812F0007FD9D1012033E0B5
:1023C8001E4B1B6803F00F03AB4207D9EAB21B4B45
:1023D8001A701B6803F00F03AB422CD1236813F06B
:1023E800040F06D0164A936823F4E053E1680B43C0
:1023F8009360236813F0080F07D0114A936823F4F9
:102408006043216943EAC1039360FFF71FFF0C4B48
:102418009B68C3F303130B4AD35CD8400A4B18607C
:10242800002000F037FB002070BD0120704701201C
:10243800FAE70120F8E70120F6E700BF003C024078
:1024480000380240342F00081000002000230F2B12
:1024580000F2D680F0B482B039E0072200E0002212
:10246800B2403A430235674E46F82520664A156859
:10247800E24302EA05064F6817F4803F01D044EAB8
:102488000506614D2E606D6802EA05064F6817F46F
:10249800003F01D044EA05065B4D6E60AD6802EA74
:1024A80005064F6817F4801F01D044EA0506564D0B
:1024B800AE60ED682A404E6816F4001F01D044EA69
:1024C8000502514CE26001330F2B00F29680012285
:1024D8009A400C681440A242F5D14D68022D01D0F3
:1024E800122D10D1DE08083650F826C003F0070573
:1024F800AF000F25BD402CEA050C0D69BD4045EA2B
:102508000C0540F8265006685F000325BD40ED43E2
:1025180005EA060C4E6806F00306BE4046EA0C06BD
:1025280006604E6806F1FF3CBCF1010F03D9112E7D
:1025380001D0122E10D1866805EA060CCE68BE407E
:1025480046EA0C068660466826EA02024E68C6F32A
:1025580000169E4016434660C26815408A68BA4015
:102568002A43C2604A6812F0805FACD00022019210
:10257800264A556C45F480455564526C02F48042F5
:102588000192019A9D08AE1C1E4A52F8267003F06B
:10259800030296000F22B24027EA02071C4A904223
:1025A8003FF45DAF02F5806290421AD002F5806276
:1025B800904218D002F58062904216D002F58062EF
:1025C800904214D002F58062904212D002F58062E7
:1025D800904210D002F5806290423FF43EAF08224C
:1025E8003EE701223CE702223AE7032238E70422C9
:1025F80036E7052234E7062232E702B0F0BC70471E
:10260800704700BF00380140003C014000380240DC
:10261800000002400AB18161704709048161704776
:1026280010B40368D9B210390C4AA2FB014212094E
:102638000B4CA25CC2655F2909D923F47F7323F090
:10264800030304338365806D5DF8044B704723F4FE
:102658007F7323F003038365F5E700BFABAAAAAA3B
:102668002C2F0008836A826992B9012B0AD01BB10A
:10267800022B01D000207047C36A13F0807F28D155
:1026880000207047C36AB3F1C07F24D00020704790
:10269800B2F5005F09D0022B25D9032B25D1C36AD7
:1026A80013F0807F23D100207047032B03D8DFE885
:1026B80003F01404140A00207047C36A13F0807FE3
:1026C8000DD100207047C36AB3F1C07F09D0002044
:1026D8007047012070470120704701207047012092
:1026E8007047012070470120704700207047012083
:1026F8007047000070B5044600F018FA002C5BD053
:102708000546002384F83430022384F835302268E3
:10271800136823F00103136023681A6812F0010F8D
:102728000AD000F003FA401B0528F5D92023636579
:10273800032084F8350070BD1A682048104061688D
:10274800A2680A43E1680A4321690A4361690A43A6
:10275800A1690A43E1690A43216A0A430243616A9B
:1027680004291ED01A602668756925F00705636A72
:102778001D43042B07D1A36A1D43E36A1BB12046FE
:10278800FFF770FF90B975612046FFF749FFE26DCA
:102798003F239340836000206065012384F835302F
:1027A800C9E7E16A206B01430A43DBE7402363651D
:1027B800012084F83500BEE70120BCE73F8010F017
:1027C80090F83530DBB2022B03D08023436501201B
:1027D8007047052380F835300268136823F0010339
:1027E8001360002070470000F0B583B00446002352
:1027F8000193724B1D68724BA3FB0535AD0A876DBB
:102808003E68C26D08239340334210D003681A68AB
:1028180012F0040F0BD01A6822F004021A60C26D7D
:1028280008239340BB60436D43F001034365E26DA9
:1028380001239340334209D02268526912F0800F75
:1028480004D0BB60636D43F002036365E26D04234B
:102858009340334209D02268126812F0020F04D064
:10286800BB60636D43F004036365E26D102393401E
:10287800334224D02268126812F0080F1FD0BB60C0
:1028880023681A6812F4802F0DD01B6813F4002FE8
:1028980004D1236C9BB12046984710E0A36C73B118
:1028A800204698470BE01A6812F4807F03D11A6813
:1028B80022F008021A60236C0BB120469847E26D9B
:1028C80020239340334255D02268126812F0100F2B
:1028D80050D0BB6094F83530DBB2052B0ED023689E
:1028E8001A6812F4802F33D01B6813F4002F2AD1F2
:1028F800636C002B3ED0204698473BE02268136863
:1029080023F0160313602268536923F08003536190
:10291800236CA3B12268136823F008031360E26DE7
:102928003F239340BB60002384F83430012384F8AC
:102938003530236D002B3FD0204698473CE0A36CF0
:10294800002BE7D1EBE7E36BA3B12046984711E0F2
:102958001A6812F4807F09D11A6822F010021A60EE
:10296800002384F83430012384F83530E36B0BB14D
:1029780020469847636DFBB1636D13F0010F17D0C4
:10298800052384F835302268136823F001031360A7
:10299800019B01330193AB4204D823681B6813F0F1
:1029A800010FF5D1002384F83430012384F8353041
:1029B800E36C0BB12046984703B0F0BD100000202F
:1029C800B5814E1B074AD36823F4E0631B041B0C34
:1029D800000200F4E060184340F0BF6040F40030AB
:1029E800D060704700ED00E030B4174BDB68C3F3EC
:1029F8000223C3F10704042C28BF04241D1D062D3F
:102A080001D9033B00E000234FF0FF3505FA04F439
:102A180021EA0401994005FA03F322EA0303194362
:102A2800002809DB0901C9B200F1604000F56140E6
:102A380080F8001330BC704700F00F000901C9B2DC
:102A4800024B1954F6E700BF00ED00E014ED00E07A
:102A580000F01F02400901239340024A42F8203047
:102A6800704700BF00E100E00138B0F1807F0AD272
:102A7800064B5860064AF02182F82310002098601F
:102A880007221A6070470120704700BF10E000E07D
:102A980000ED00E010B504460E4B18784FF47A7339
:102AA800B3FBF0F30C4A1068B0FBF3F0FFF7DCFF60
:102AB80068B90F2C01D901200AE0002221464FF005
:102AC800FF30FFF791FF054B1C60002000E001205C
:102AD80010BD00BF0A000020100000200C000020DC
:102AE80008B50B4B1A6842F400721A601A6842F46F
:102AF80080621A601A6842F480721A600320FFF735
:102B080061FF0020FFF7C6FFFDF728FD002008BD84
:102B1800003C0240034A1168034B1B780B441360C6
:102B2800704700BFD80100200A000020014B186838
:102B3800704700BFD801002038B50446FFF7F6FFFC
:102B48000546B4F1FF3F02D0044B1B781C44FFF745
:102B5800EDFF401BA042FAD338BD00BF0A00002099
:102B68000F49D1F8883043F47003C1F888300D4B11
:102B78001A6842F001021A60002098601A6822F070
:102B8800847222F480321A60074A5A601A6822F462
:102B980080221A60D8604FF000638B60704700BFD6
:102BA80000ED00E00038024010300024DFF834D097
:102BB800002103E00C4B5B58435004310B480C4B8D
:102BC80042189A42F6D30B4A02E0002342F8043B2B
:102BD800094B9A42F9D3FFF7C3FF00F011F8FDF74C
:102BE8006FFC704700000220542F000800000020EE
:102BF8001400002014000020DC010020FEE7000083
:102C080070B50D4D0D4C641BA4100026A64209D1C9
:102C18000B4D0C4C00F07AF9641BA4100026A64258
:102C280005D170BD55F8043B98470136EEE755F8D5
:102C3800043B98470136F2E74C2F00084C2F000858
:102C48004C2F0008502F000802440346934200D13D
:102C5800704703F8011BF9E72DE9F04F099F154666
:102C680004468E461E46002B40F0CC808A42B2FABB
:102C780082FC4CD9BCF1000F0BD0CCF1200801FA32
:102C88000CFE20FA08F802FA0CF548EA0E0E00FAD3
:102C98000CF44FEA15491FFA85F8BEFBF9FA210C26
:102CA80009FB1AE30AFB08FB41EA03439B452AD9BF
:102CB800EB180AF1FF3004D29B4502D9AAF10200B1
:102CC8002B44A3EB0B03A4B2B3FBF9F209FB1233B9
:102CD80002FB08F844EA0344A04516D92C1902F16E
:102CE800FF3303D2A04501D9931E2C44A4EB08045A
:102CF80043EA004027B124FA0CF400233C607B60CF
:102D08003146BDE8F08F5046DBE71346EEE702B9DF
:102D1800FFDEBCF1000F2ED18B1A01264FEA154EAB
:102D2800AAB2B3FBFEF8210C0EFB183308FB02F91C
:102D380041EA0343994561D9EB1808F1FF3004D201
:102D4800994502D9A8F102002B44A3EB0903A4B2C8
:102D5800B3FBFEF10EFB11334A4344EA0344A2429B
:102D68004ED92C1901F1FF3303D2A24201D98B1E8F
:102D78002C44A41ABCE7CCF1200E02FA0CF521FA77
:102D88000EF901FA0CF320FA0EFE4EEA03034FEA9D
:102D9800154800FA0CF4B9FBF8F11FFA85FE08FB98
:102DA8001192180C01FB0EF640EA0242964221D914
:102DB800AA1801F1FF3003D2964201D9881E2A448D
:102DC800921B9BB2B2FBF8F908FB192209FB0EFE15
:102DD80043EA02439E450FD9EB1809F1FF3604D2A6
:102DE8009E4502D9A9F102062B44A3EB0E0346EA3D
:102DF800004693E70846E3E74E46F6E74046A4E771
:102E08000B46B6E78B4205D90FB1C7E9000100268A
:102E1800304675E7B3FA83FCBCF1000F0FD18B4243
:102E280001D3824209D8841A61EB030E0120002FD6
:102E38006AD0C7E9004E002662E76046F7E7CCF1A2
:102E4800200E03FA0CF322FA0EF521FA0EF41D43B4
:102E580001FA0CF320FA0EF10B434FEA154A00FA77
:102E68000CF6B4FBFAF91FFA85F80AFB19401C0C9A
:102E780009FB08F144EA0044A14202FA0CF23FD9E6
:102E88002C1909F1FF3004D2A14202D9A9F102009C
:102E98002C44641A9BB2B4FBFAF90AFB194409FBE7
:102EA80008F843EA044188452CD9691809F1FF3329
:102EB80004D2884502D9A9F10203294443EA004013
:102EC800A1EB0801A0FB02894945C2464C4602D342
:102ED80006D1464504D2B8EB020A69EB050401386D
:102EE80097B1B6EB0A0361EB040606FA0EFE23FA65
:102EF8000CF34EEA030326FA0CF6C7E900369AE704
:102F08004846C6E74B46D9E73E46F9E6F8B500BF5E
:102F1800F8BC08BC9E467047F8B500BFF8BC08BCB2
:042F28009E4670470A
:102F2C00000610160006101600000000000000003D
:082F3C00010203040607080965
:082F44001CFDFF7F01000000ED
:042F4C00E101000897
:042F5000BD010008B7
:102F5400616E696D65626F6F62730100100000003D
:042F64000024F40051
:0400000508002BB50F
:00000001FF
